{
  "_format": "hh-sol-artifact-1",
  "contractName": "PropertyRegistry",
  "sourceName": "contracts/PropertyRegistry.sol",
  "abi": [
    {
      "anonymous": false,
      "inputs": [
        {
          "indexed": true,
          "internalType": "address",
          "name": "blockchainId",
          "type": "address"
        },
        {
          "indexed": false,
          "internalType": "string",
          "name": "propertyId",
          "type": "string"
        },
        {
          "indexed": false,
          "internalType": "string",
          "name": "propertyName",
          "type": "string"
        },
        {
          "indexed": false,
          "internalType": "address",
          "name": "owner",
          "type": "address"
        }
      ],
      "name": "PropertyRegistered",
      "type": "event"
    },
    {
      "anonymous": false,
      "inputs": [
        {
          "indexed": true,
          "internalType": "address",
          "name": "blockchainId",
          "type": "address"
        }
      ],
      "name": "PropertyVerified",
      "type": "event"
    },
    {
      "inputs": [
        {
          "internalType": "address",
          "name": "_blockchainId",
          "type": "address"
        }
      ],
      "name": "getProperty",
      "outputs": [
        {
          "components": [
            {
              "internalType": "string",
              "name": "propertyId",
              "type": "string"
            },
            {
              "internalType": "string",
              "name": "propertyName",
              "type": "string"
            },
            {
              "internalType": "string",
              "name": "location",
              "type": "string"
            },
            {
              "internalType": "string",
              "name": "propertyType",
              "type": "string"
            },
            {
              "internalType": "address",
              "name": "owner",
              "type": "address"
            },
            {
              "internalType": "uint256",
              "name": "registrationDate",
              "type": "uint256"
            },
            {
              "internalType": "bool",
              "name": "isVerified",
              "type": "bool"
            }
          ],
          "internalType": "struct PropertyRegistry.Property",
          "name": "",
          "type": "tuple"
        }
      ],
      "stateMutability": "view",
      "type": "function"
    },
    {
      "inputs": [
        {
          "internalType": "address",
          "name": "",
          "type": "address"
        }
      ],
      "name": "properties",
      "outputs": [
        {
          "internalType": "string",
          "name": "propertyId",
          "type": "string"
        },
        {
          "internalType": "string",
          "name": "propertyName",
          "type": "string"
        },
        {
          "internalType": "string",
          "name": "location",
          "type": "string"
        },
        {
          "internalType": "string",
          "name": "propertyType",
          "type": "string"
        },
        {
          "internalType": "address",
          "name": "owner",
          "type": "address"
        },
        {
          "internalType": "uint256",
          "name": "registrationDate",
          "type": "uint256"
        },
        {
          "internalType": "bool",
          "name": "isVerified",
          "type": "bool"
        }
      ],
      "stateMutability": "view",
      "type": "function"
    },
    {
      "inputs": [
        {
          "internalType": "string",
          "name": "_propertyId",
          "type": "string"
        },
        {
          "internalType": "string",
          "name": "_propertyName",
          "type": "string"
        },
        {
          "internalType": "string",
          "name": "_location",
          "type": "string"
        },
        {
          "internalType": "string",
          "name": "_propertyType",
          "type": "string"
        }
      ],
      "name": "registerProperty",
      "outputs": [
        {
          "internalType": "address",
          "name": "",
          "type": "address"
        }
      ],
      "stateMutability": "nonpayable",
      "type": "function"
    },
    {
      "inputs": [
        {
          "internalType": "address",
          "name": "_blockchainId",
          "type": "address"
        }
      ],
      "name": "verifyProperty",
      "outputs": [],
      "stateMutability": "nonpayable",
      "type": "function"
    }
  ],
  "bytecode": "0x608060405234801561001057600080fd5b506114df806100206000396000f3fe608060405234801561001057600080fd5b506004361061004c5760003560e01c806325ec77d7146100515780634b3b5e0e146100875780636e23de72146100a3578063952ba6d4146100d3575b600080fd5b61006b60048036038101906100669190610b99565b610103565b60405161007e9796959493929190610c99565b60405180910390f35b6100a1600480360381019061009c9190610b99565b610392565b005b6100bd60048036038101906100b89190610e59565b610502565b6040516100ca9190610f30565b60405180910390f35b6100ed60048036038101906100e89190610b99565b6106e7565b6040516100fa9190611073565b60405180910390f35b6000602052806000526040600020600091509050806000018054610126906110c4565b80601f0160208091040260200160405190810160405280929190818152602001828054610152906110c4565b801561019f5780601f106101745761010080835404028352916020019161019f565b820191906000526020600020905b81548152906001019060200180831161018257829003601f168201915b5050505050908060010180546101b4906110c4565b80601f01602080910402602001604051908101604052809291908181526020018280546101e0906110c4565b801561022d5780601f106102025761010080835404028352916020019161022d565b820191906000526020600020905b81548152906001019060200180831161021057829003601f168201915b505050505090806002018054610242906110c4565b80601f016020809104026020016040519081016040528092919081815260200182805461026e906110c4565b80156102bb5780601f10610290576101008083540402835291602001916102bb565b820191906000526020600020905b81548152906001019060200180831161029e57829003601f168201915b5050505050908060030180546102d0906110c4565b80601f01602080910402602001604051908101604052809291908181526020018280546102fc906110c4565b80156103495780601f1061031e57610100808354040283529160200191610349565b820191906000526020600020905b81548152906001019060200180831161032c57829003601f168201915b5050505050908060040160009054906101000a900473ffffffffffffffffffffffffffffffffffffffff16908060050154908060060160009054906101000a900460ff16905087565b600073ffffffffffffffffffffffffffffffffffffffff166000808373ffffffffffffffffffffffffffffffffffffffff1673ffffffffffffffffffffffffffffffffffffffff16815260200190815260200160002060040160009054906101000a900473ffffffffffffffffffffffffffffffffffffffff1673ffffffffffffffffffffffffffffffffffffffff1603610462576040517f08c379a000000000000000000000000000000000000000000000000000000000815260040161045990611141565b60405180910390fd5b60016000808373ffffffffffffffffffffffffffffffffffffffff1673ffffffffffffffffffffffffffffffffffffffff16815260200190815260200160002060060160006101000a81548160ff0219169083151502179055508073ffffffffffffffffffffffffffffffffffffffff167fed812340c7386ae9e3889dcab178aaee788b054fefa5b62fcf123fdc399d1c7660405160405180910390a250565b60008085426040516020016105189291906111be565b6040516020818303038152906040528051906020012060001c90506040518060e001604052808781526020018681526020018581526020018481526020013373ffffffffffffffffffffffffffffffffffffffff168152602001428152602001600015158152506000808373ffffffffffffffffffffffffffffffffffffffff1673ffffffffffffffffffffffffffffffffffffffff16815260200190815260200160002060008201518160000190816105d29190611392565b5060208201518160010190816105e89190611392565b5060408201518160020190816105fe9190611392565b5060608201518160030190816106149190611392565b5060808201518160040160006101000a81548173ffffffffffffffffffffffffffffffffffffffff021916908373ffffffffffffffffffffffffffffffffffffffff16021790555060a0820151816005015560c08201518160060160006101000a81548160ff0219169083151502179055509050508073ffffffffffffffffffffffffffffffffffffffff167f90406639a2c7132e7c517459f5396403878ea855bf59640aeaff7644ec1e44b18787336040516106d393929190611464565b60405180910390a280915050949350505050565b6106ef610ad2565b600073ffffffffffffffffffffffffffffffffffffffff166000808473ffffffffffffffffffffffffffffffffffffffff1673ffffffffffffffffffffffffffffffffffffffff16815260200190815260200160002060040160009054906101000a900473ffffffffffffffffffffffffffffffffffffffff1673ffffffffffffffffffffffffffffffffffffffff16036107bf576040517f08c379a00000000000000000000000000000000000000000000000000000000081526004016107b690611141565b60405180910390fd5b6000808373ffffffffffffffffffffffffffffffffffffffff1673ffffffffffffffffffffffffffffffffffffffff1681526020019081526020016000206040518060e0016040529081600082018054610818906110c4565b80601f0160208091040260200160405190810160405280929190818152602001828054610844906110c4565b80156108915780601f1061086657610100808354040283529160200191610891565b820191906000526020600020905b81548152906001019060200180831161087457829003601f168201915b505050505081526020016001820180546108aa906110c4565b80601f01602080910402602001604051908101604052809291908181526020018280546108d6906110c4565b80156109235780601f106108f857610100808354040283529160200191610923565b820191906000526020600020905b81548152906001019060200180831161090657829003601f168201915b5050505050815260200160028201805461093c906110c4565b80601f0160208091040260200160405190810160405280929190818152602001828054610968906110c4565b80156109b55780601f1061098a576101008083540402835291602001916109b5565b820191906000526020600020905b81548152906001019060200180831161099857829003601f168201915b505050505081526020016003820180546109ce906110c4565b80601f01602080910402602001604051908101604052809291908181526020018280546109fa906110c4565b8015610a475780601f10610a1c57610100808354040283529160200191610a47565b820191906000526020600020905b815481529060010190602001808311610a2a57829003601f168201915b505050505081526020016004820160009054906101000a900473ffffffffffffffffffffffffffffffffffffffff1673ffffffffffffffffffffffffffffffffffffffff1673ffffffffffffffffffffffffffffffffffffffff168152602001600582015481526020016006820160009054906101000a900460ff1615151515815250509050919050565b6040518060e0016040528060608152602001606081526020016060815260200160608152602001600073ffffffffffffffffffffffffffffffffffffffff168152602001600081526020016000151581525090565b6000604051905090565b600080fd5b600080fd5b600073ffffffffffffffffffffffffffffffffffffffff82169050919050565b6000610b6682610b3b565b9050919050565b610b7681610b5b565b8114610b8157600080fd5b50565b600081359050610b9381610b6d565b92915050565b600060208284031215610baf57610bae610b31565b5b6000610bbd84828501610b84565b91505092915050565b600081519050919050565b600082825260208201905092915050565b60005b83811015610c00578082015181840152602081019050610be5565b60008484015250505050565b6000601f19601f8301169050919050565b6000610c2882610bc6565b610c328185610bd1565b9350610c42818560208601610be2565b610c4b81610c0c565b840191505092915050565b610c5f81610b5b565b82525050565b6000819050919050565b610c7881610c65565b82525050565b60008115159050919050565b610c9381610c7e565b82525050565b600060e0820190508181036000830152610cb3818a610c1d565b90508181036020830152610cc78189610c1d565b90508181036040830152610cdb8188610c1d565b90508181036060830152610cef8187610c1d565b9050610cfe6080830186610c56565b610d0b60a0830185610c6f565b610d1860c0830184610c8a565b98975050505050505050565b600080fd5b600080fd5b7f4e487b7100000000000000000000000000000000000000000000000000000000600052604160045260246000fd5b610d6682610c0c565b810181811067ffffffffffffffff82111715610d8557610d84610d2e565b5b80604052505050565b6000610d98610b27565b9050610da48282610d5d565b919050565b600067ffffffffffffffff821115610dc457610dc3610d2e565b5b610dcd82610c0c565b9050602081019050919050565b82818337600083830152505050565b6000610dfc610df784610da9565b610d8e565b905082815260208101848484011115610e1857610e17610d29565b5b610e23848285610dda565b509392505050565b600082601f830112610e4057610e3f610d24565b5b8135610e50848260208601610de9565b91505092915050565b60008060008060808587031215610e7357610e72610b31565b5b600085013567ffffffffffffffff811115610e9157610e90610b36565b5b610e9d87828801610e2b565b945050602085013567ffffffffffffffff811115610ebe57610ebd610b36565b5b610eca87828801610e2b565b935050604085013567ffffffffffffffff811115610eeb57610eea610b36565b5b610ef787828801610e2b565b925050606085013567ffffffffffffffff811115610f1857610f17610b36565b5b610f2487828801610e2b565b91505092959194509250565b6000602082019050610f456000830184610c56565b92915050565b600082825260208201905092915050565b6000610f6782610bc6565b610f718185610f4b565b9350610f81818560208601610be2565b610f8a81610c0c565b840191505092915050565b610f9e81610b5b565b82525050565b610fad81610c65565b82525050565b610fbc81610c7e565b82525050565b600060e0830160008301518482036000860152610fdf8282610f5c565b91505060208301518482036020860152610ff98282610f5c565b915050604083015184820360408601526110138282610f5c565b9150506060830151848203606086015261102d8282610f5c565b91505060808301516110426080860182610f95565b5060a083015161105560a0860182610fa4565b5060c083015161106860c0860182610fb3565b508091505092915050565b6000602082019050818103600083015261108d8184610fc2565b905092915050565b7f4e487b7100000000000000000000000000000000000000000000000000000000600052602260045260246000fd5b600060028204905060018216806110dc57607f821691505b6020821081036110ef576110ee611095565b5b50919050565b7f50726f706572747920646f6573206e6f74206578697374000000000000000000600082015250565b600061112b601783610bd1565b9150611136826110f5565b602082019050919050565b6000602082019050818103600083015261115a8161111e565b9050919050565b600081905092915050565b600061117782610bc6565b6111818185611161565b9350611191818560208601610be2565b80840191505092915050565b6000819050919050565b6111b86111b382610c65565b61119d565b82525050565b60006111ca828561116c565b91506111d682846111a7565b6020820191508190509392505050565b60008190508160005260206000209050919050565b60006020601f8301049050919050565b600082821b905092915050565b6000600883026112487fffffffffffffffffffffffffffffffffffffffffffffffffffffffffffffffff8261120b565b611252868361120b565b95508019841693508086168417925050509392505050565b6000819050919050565b600061128f61128a61128584610c65565b61126a565b610c65565b9050919050565b6000819050919050565b6112a983611274565b6112bd6112b582611296565b848454611218565b825550505050565b600090565b6112d26112c5565b6112dd8184846112a0565b505050565b5b81811015611301576112f66000826112ca565b6001810190506112e3565b5050565b601f82111561134657611317816111e6565b611320846111fb565b8101602085101561132f578190505b61134361133b856111fb565b8301826112e2565b50505b505050565b600082821c905092915050565b60006113696000198460080261134b565b1980831691505092915050565b60006113828383611358565b9150826002028217905092915050565b61139b82610bc6565b67ffffffffffffffff8111156113b4576113b3610d2e565b5b6113be82546110c4565b6113c9828285611305565b600060209050601f8311600181146113fc57600084156113ea578287015190505b6113f48582611376565b86555061145c565b601f19841661140a866111e6565b60005b828110156114325784890151825560018201915060208501945060208101905061140d565b8683101561144f578489015161144b601f891682611358565b8355505b6001600288020188555050505b505050505050565b6000606082019050818103600083015261147e8186610c1d565b905081810360208301526114928185610c1d565b90506114a16040830184610c56565b94935050505056fea26469706673582212208a2524922187d68fd60bf4408aa0192b411bec633c6d4f8044c31363ebfb3e0464736f6c63430008130033",
  "linkReferences": {},
  "deployedLinkReferences": {}
}