{
  "_format": "hh-sol-artifact-1",
  "contractName": "DocumentVerification",
  "sourceName": "contracts/DocumentVerification.sol",
  "abi": [
    {
      "inputs": [],
      "stateMutability": "nonpayable",
      "type": "constructor"
    },
    {
      "inputs": [],
      "name": "AccessControlBadConfirmation",
      "type": "error"
    },
    {
      "inputs": [
        {
          "internalType": "address",
          "name": "account",
          "type": "address"
        },
        {
          "internalType": "bytes32",
          "name": "neededRole",
          "type": "bytes32"
        }
      ],
      "name": "AccessControlUnauthorizedAccount",
      "type": "error"
    },
    {
      "inputs": [],
      "name": "EnforcedPause",
      "type": "error"
    },
    {
      "inputs": [],
      "name": "ExpectedPause",
      "type": "error"
    },
    {
      "inputs": [],
      "name": "ReentrancyGuardReentrantCall",
      "type": "error"
    },
    {
      "anonymous": false,
      "inputs": [
        {
          "indexed": true,
          "internalType": "bytes32",
          "name": "documentId",
          "type": "bytes32"
        },
        {
          "indexed": true,
          "internalType": "address",
          "name": "revokedBy",
          "type": "address"
        }
      ],
      "name": "DocumentRevoked",
      "type": "event"
    },
    {
      "anonymous": false,
      "inputs": [
        {
          "indexed": true,
          "internalType": "bytes32",
          "name": "documentId",
          "type": "bytes32"
        },
        {
          "indexed": true,
          "internalType": "address",
          "name": "updatedBy",
          "type": "address"
        }
      ],
      "name": "DocumentUpdated",
      "type": "event"
    },
    {
      "anonymous": false,
      "inputs": [
        {
          "indexed": true,
          "internalType": "bytes32",
          "name": "documentId",
          "type": "bytes32"
        },
        {
          "indexed": true,
          "internalType": "address",
          "name": "issuedTo",
          "type": "address"
        },
        {
          "indexed": false,
          "internalType": "string",
          "name": "documentType",
          "type": "string"
        }
      ],
      "name": "DocumentVerified",
      "type": "event"
    },
    {
      "anonymous": false,
      "inputs": [
        {
          "indexed": false,
          "internalType": "address",
          "name": "account",
          "type": "address"
        }
      ],
      "name": "Paused",
      "type": "event"
    },
    {
      "anonymous": false,
      "inputs": [
        {
          "indexed": true,
          "internalType": "bytes32",
          "name": "role",
          "type": "bytes32"
        },
        {
          "indexed": true,
          "internalType": "bytes32",
          "name": "previousAdminRole",
          "type": "bytes32"
        },
        {
          "indexed": true,
          "internalType": "bytes32",
          "name": "newAdminRole",
          "type": "bytes32"
        }
      ],
      "name": "RoleAdminChanged",
      "type": "event"
    },
    {
      "anonymous": false,
      "inputs": [
        {
          "indexed": true,
          "internalType": "bytes32",
          "name": "role",
          "type": "bytes32"
        },
        {
          "indexed": true,
          "internalType": "address",
          "name": "account",
          "type": "address"
        },
        {
          "indexed": true,
          "internalType": "address",
          "name": "sender",
          "type": "address"
        }
      ],
      "name": "RoleGranted",
      "type": "event"
    },
    {
      "anonymous": false,
      "inputs": [
        {
          "indexed": true,
          "internalType": "bytes32",
          "name": "role",
          "type": "bytes32"
        },
        {
          "indexed": true,
          "internalType": "address",
          "name": "account",
          "type": "address"
        },
        {
          "indexed": true,
          "internalType": "address",
          "name": "sender",
          "type": "address"
        }
      ],
      "name": "RoleRevoked",
      "type": "event"
    },
    {
      "anonymous": false,
      "inputs": [
        {
          "indexed": false,
          "internalType": "address",
          "name": "account",
          "type": "address"
        }
      ],
      "name": "Unpaused",
      "type": "event"
    },
    {
      "inputs": [],
      "name": "ADMIN_ROLE",
      "outputs": [
        {
          "internalType": "bytes32",
          "name": "",
          "type": "bytes32"
        }
      ],
      "stateMutability": "view",
      "type": "function"
    },
    {
      "inputs": [],
      "name": "DEFAULT_ADMIN_ROLE",
      "outputs": [
        {
          "internalType": "bytes32",
          "name": "",
          "type": "bytes32"
        }
      ],
      "stateMutability": "view",
      "type": "function"
    },
    {
      "inputs": [],
      "name": "VERIFIER_ROLE",
      "outputs": [
        {
          "internalType": "bytes32",
          "name": "",
          "type": "bytes32"
        }
      ],
      "stateMutability": "view",
      "type": "function"
    },
    {
      "inputs": [
        {
          "internalType": "address",
          "name": "verifier",
          "type": "address"
        }
      ],
      "name": "addVerifier",
      "outputs": [],
      "stateMutability": "nonpayable",
      "type": "function"
    },
    {
      "inputs": [
        {
          "internalType": "bytes32",
          "name": "",
          "type": "bytes32"
        }
      ],
      "name": "documents",
      "outputs": [
        {
          "internalType": "string",
          "name": "documentHash",
          "type": "string"
        },
        {
          "internalType": "string",
          "name": "documentType",
          "type": "string"
        },
        {
          "internalType": "address",
          "name": "issuedTo",
          "type": "address"
        },
        {
          "internalType": "address",
          "name": "verifiedBy",
          "type": "address"
        },
        {
          "internalType": "uint256",
          "name": "issuanceDate",
          "type": "uint256"
        },
        {
          "internalType": "uint256",
          "name": "expiryDate",
          "type": "uint256"
        },
        {
          "internalType": "bool",
          "name": "isValid",
          "type": "bool"
        },
        {
          "internalType": "string",
          "name": "metadataURI",
          "type": "string"
        }
      ],
      "stateMutability": "view",
      "type": "function"
    },
    {
      "inputs": [
        {
          "internalType": "bytes32",
          "name": "documentId",
          "type": "bytes32"
        }
      ],
      "name": "getDocument",
      "outputs": [
        {
          "components": [
            {
              "internalType": "string",
              "name": "documentHash",
              "type": "string"
            },
            {
              "internalType": "string",
              "name": "documentType",
              "type": "string"
            },
            {
              "internalType": "address",
              "name": "issuedTo",
              "type": "address"
            },
            {
              "internalType": "address",
              "name": "verifiedBy",
              "type": "address"
            },
            {
              "internalType": "uint256",
              "name": "issuanceDate",
              "type": "uint256"
            },
            {
              "internalType": "uint256",
              "name": "expiryDate",
              "type": "uint256"
            },
            {
              "internalType": "bool",
              "name": "isValid",
              "type": "bool"
            },
            {
              "internalType": "string",
              "name": "metadataURI",
              "type": "string"
            }
          ],
          "internalType": "struct DocumentVerification.Document",
          "name": "",
          "type": "tuple"
        }
      ],
      "stateMutability": "view",
      "type": "function"
    },
    {
      "inputs": [
        {
          "internalType": "bytes32",
          "name": "role",
          "type": "bytes32"
        }
      ],
      "name": "getRoleAdmin",
      "outputs": [
        {
          "internalType": "bytes32",
          "name": "",
          "type": "bytes32"
        }
      ],
      "stateMutability": "view",
      "type": "function"
    },
    {
      "inputs": [
        {
          "internalType": "address",
          "name": "user",
          "type": "address"
        }
      ],
      "name": "getUserDocuments",
      "outputs": [
        {
          "internalType": "bytes32[]",
          "name": "",
          "type": "bytes32[]"
        }
      ],
      "stateMutability": "view",
      "type": "function"
    },
    {
      "inputs": [
        {
          "internalType": "bytes32",
          "name": "role",
          "type": "bytes32"
        },
        {
          "internalType": "address",
          "name": "account",
          "type": "address"
        }
      ],
      "name": "grantRole",
      "outputs": [],
      "stateMutability": "nonpayable",
      "type": "function"
    },
    {
      "inputs": [
        {
          "internalType": "bytes32",
          "name": "role",
          "type": "bytes32"
        },
        {
          "internalType": "address",
          "name": "account",
          "type": "address"
        }
      ],
      "name": "hasRole",
      "outputs": [
        {
          "internalType": "bool",
          "name": "",
          "type": "bool"
        }
      ],
      "stateMutability": "view",
      "type": "function"
    },
    {
      "inputs": [],
      "name": "pause",
      "outputs": [],
      "stateMutability": "nonpayable",
      "type": "function"
    },
    {
      "inputs": [],
      "name": "paused",
      "outputs": [
        {
          "internalType": "bool",
          "name": "",
          "type": "bool"
        }
      ],
      "stateMutability": "view",
      "type": "function"
    },
    {
      "inputs": [
        {
          "internalType": "address",
          "name": "verifier",
          "type": "address"
        }
      ],
      "name": "removeVerifier",
      "outputs": [],
      "stateMutability": "nonpayable",
      "type": "function"
    },
    {
      "inputs": [
        {
          "internalType": "bytes32",
          "name": "role",
          "type": "bytes32"
        },
        {
          "internalType": "address",
          "name": "callerConfirmation",
          "type": "address"
        }
      ],
      "name": "renounceRole",
      "outputs": [],
      "stateMutability": "nonpayable",
      "type": "function"
    },
    {
      "inputs": [
        {
          "internalType": "bytes32",
          "name": "documentId",
          "type": "bytes32"
        }
      ],
      "name": "revokeDocument",
      "outputs": [],
      "stateMutability": "nonpayable",
      "type": "function"
    },
    {
      "inputs": [
        {
          "internalType": "bytes32",
          "name": "role",
          "type": "bytes32"
        },
        {
          "internalType": "address",
          "name": "account",
          "type": "address"
        }
      ],
      "name": "revokeRole",
      "outputs": [],
      "stateMutability": "nonpayable",
      "type": "function"
    },
    {
      "inputs": [
        {
          "internalType": "bytes4",
          "name": "interfaceId",
          "type": "bytes4"
        }
      ],
      "name": "supportsInterface",
      "outputs": [
        {
          "internalType": "bool",
          "name": "",
          "type": "bool"
        }
      ],
      "stateMutability": "view",
      "type": "function"
    },
    {
      "inputs": [],
      "name": "unpause",
      "outputs": [],
      "stateMutability": "nonpayable",
      "type": "function"
    },
    {
      "inputs": [
        {
          "internalType": "bytes32",
          "name": "documentId",
          "type": "bytes32"
        },
        {
          "internalType": "string",
          "name": "newMetadataURI",
          "type": "string"
        },
        {
          "internalType": "uint256",
          "name": "newExpiryDate",
          "type": "uint256"
        }
      ],
      "name": "updateDocument",
      "outputs": [],
      "stateMutability": "nonpayable",
      "type": "function"
    },
    {
      "inputs": [
        {
          "internalType": "address",
          "name": "",
          "type": "address"
        },
        {
          "internalType": "uint256",
          "name": "",
          "type": "uint256"
        }
      ],
      "name": "userDocuments",
      "outputs": [
        {
          "internalType": "bytes32",
          "name": "",
          "type": "bytes32"
        }
      ],
      "stateMutability": "view",
      "type": "function"
    },
    {
      "inputs": [
        {
          "internalType": "string",
          "name": "documentHash",
          "type": "string"
        },
        {
          "internalType": "string",
          "name": "documentType",
          "type": "string"
        },
        {
          "internalType": "address",
          "name": "issuedTo",
          "type": "address"
        },
        {
          "internalType": "uint256",
          "name": "expiryDate",
          "type": "uint256"
        },
        {
          "internalType": "string",
          "name": "metadataURI",
          "type": "string"
        }
      ],
      "name": "verifyDocument",
      "outputs": [],
      "stateMutability": "nonpayable",
      "type": "function"
    }
  ],
  "bytecode": "0x60806040523480156200001157600080fd5b506000600160006101000a81548160ff02191690831515021790555060016002819055506200004a6000801b336200008460201b60201c565b506200007d7fa49807205ce4d355092ef5a8a18f56e8913cf4a201fbe287825b095693c21775336200008460201b60201c565b50620001f9565b60006200009883836200018760201b60201c565b6200017c57600160008085815260200190815260200160002060000160008473ffffffffffffffffffffffffffffffffffffffff1673ffffffffffffffffffffffffffffffffffffffff16815260200190815260200160002060006101000a81548160ff02191690831515021790555062000118620001f160201b60201c565b73ffffffffffffffffffffffffffffffffffffffff168273ffffffffffffffffffffffffffffffffffffffff16847f2f8788117e7eff1d82e926ec794901d17c78024a50270940304540a733656f0d60405160405180910390a46001905062000181565b600090505b92915050565b600080600084815260200190815260200160002060000160008373ffffffffffffffffffffffffffffffffffffffff1673ffffffffffffffffffffffffffffffffffffffff16815260200190815260200160002060009054906101000a900460ff16905092915050565b600033905090565b61292080620002096000396000f3fe608060405234801561001057600080fd5b50600436106101375760003560e01c80638456cb59116100b8578063a217fddf1161007c578063a217fddf1461033f578063b10d6b411461035d578063ca2dfd0a1461038d578063d547741f146103a9578063d93d2a10146103c5578063e7705db6146103e157610137565b80638456cb591461029d5780639000b3d6146102a757806390a4b162146102c357806391d14854146102f3578063952be80d1461032357610137565b806336568abe116100ff57806336568abe1461020b5780633f4ba83a14610227578063577a1b92146102315780635c975abb1461026157806375b238fc1461027f57610137565b806301ffc9a71461013c57806309c7688d1461016c578063248a9ca3146101885780632b2805db146101b85780632f2ff15d146101ef575b600080fd5b610156600480360381019061015191906119ea565b6103ff565b6040516101639190611a32565b60405180910390f35b61018660048036038101906101819190611bff565b610479565b005b6101a2600480360381019061019d9190611c6e565b61062e565b6040516101af9190611caa565b60405180910390f35b6101d260048036038101906101cd9190611c6e565b61064d565b6040516101e6989796959493929190611d94565b60405180910390f35b61020960048036038101906102049190611e53565b61087a565b005b61022560048036038101906102209190611e53565b61089c565b005b61022f610917565b005b61024b60048036038101906102469190611e93565b61098a565b6040516102589190611caa565b60405180910390f35b6102696109bb565b6040516102769190611a32565b60405180910390f35b6102876109d2565b6040516102949190611caa565b60405180910390f35b6102a56109f6565b005b6102c160048036038101906102bc9190611ed3565b610a69565b005b6102dd60048036038101906102d89190611ed3565b610aff565b6040516102ea9190611fbe565b60405180910390f35b61030d60048036038101906103089190611e53565b610b96565b60405161031a9190611a32565b60405180910390f35b61033d60048036038101906103389190611c6e565b610c00565b005b610347610dd4565b6040516103549190611caa565b60405180910390f35b61037760048036038101906103729190611c6e565b610ddb565b6040516103849190612115565b60405180910390f35b6103a760048036038101906103a29190611ed3565b61109a565b005b6103c360048036038101906103be9190611e53565b611130565b005b6103df60048036038101906103da9190612137565b611152565b005b6103e9611499565b6040516103f69190611caa565b60405180910390f35b60007f7965db0b000000000000000000000000000000000000000000000000000000007bffffffffffffffffffffffffffffffffffffffffffffffffffffffff1916827bffffffffffffffffffffffffffffffffffffffffffffffffffffffff191614806104725750610471826114bd565b5b9050919050565b610481611527565b6104ab7f0ce23c3e399818cfee81a7ab0880f714e53d7672b08df0fa62f2843416e1ea0933610b96565b6104ea576040517f08c379a00000000000000000000000000000000000000000000000000000000081526004016104e190612252565b60405180910390fd5b6000600360008581526020019081526020016000206004015403610543576040517f08c379a000000000000000000000000000000000000000000000000000000000815260040161053a906122be565b60405180910390fd5b6003600084815260200190815260200160002060060160009054906101000a900460ff166105a6576040517f08c379a000000000000000000000000000000000000000000000000000000000815260040161059d9061232a565b60405180910390fd5b816003600085815260200190815260200160002060070190816105c99190612556565b508060036000858152602001908152602001600020600501819055503373ffffffffffffffffffffffffffffffffffffffff16837fa8b2baeaf815521957c7b29103c82dc924292ff4b42523cb1da8cc1add1eab9560405160405180910390a3505050565b6000806000838152602001908152602001600020600101549050919050565b600360205280600052604060002060009150905080600001805461067090612379565b80601f016020809104026020016040519081016040528092919081815260200182805461069c90612379565b80156106e95780601f106106be576101008083540402835291602001916106e9565b820191906000526020600020905b8154815290600101906020018083116106cc57829003601f168201915b5050505050908060010180546106fe90612379565b80601f016020809104026020016040519081016040528092919081815260200182805461072a90612379565b80156107775780601f1061074c57610100808354040283529160200191610777565b820191906000526020600020905b81548152906001019060200180831161075a57829003601f168201915b5050505050908060020160009054906101000a900473ffffffffffffffffffffffffffffffffffffffff16908060030160009054906101000a900473ffffffffffffffffffffffffffffffffffffffff16908060040154908060050154908060060160009054906101000a900460ff16908060070180546107f790612379565b80601f016020809104026020016040519081016040528092919081815260200182805461082390612379565b80156108705780601f1061084557610100808354040283529160200191610870565b820191906000526020600020905b81548152906001019060200180831161085357829003601f168201915b5050505050905088565b6108838261062e565b61088c81611568565b610896838361157c565b50505050565b6108a461166d565b73ffffffffffffffffffffffffffffffffffffffff168173ffffffffffffffffffffffffffffffffffffffff1614610908576040517f6697b23200000000000000000000000000000000000000000000000000000000815260040160405180910390fd5b6109128282611675565b505050565b6109417fa49807205ce4d355092ef5a8a18f56e8913cf4a201fbe287825b095693c2177533610b96565b610980576040517f08c379a000000000000000000000000000000000000000000000000000000000815260040161097790612674565b60405180910390fd5b610988611767565b565b600460205281600052604060002081815481106109a657600080fd5b90600052602060002001600091509150505481565b6000600160009054906101000a900460ff16905090565b7fa49807205ce4d355092ef5a8a18f56e8913cf4a201fbe287825b095693c2177581565b610a207fa49807205ce4d355092ef5a8a18f56e8913cf4a201fbe287825b095693c2177533610b96565b610a5f576040517f08c379a0000000000000000000000000000000000000000000000000000000008152600401610a5690612674565b60405180910390fd5b610a676117ca565b565b610a937fa49807205ce4d355092ef5a8a18f56e8913cf4a201fbe287825b095693c2177533610b96565b610ad2576040517f08c379a0000000000000000000000000000000000000000000000000000000008152600401610ac990612674565b60405180910390fd5b610afc7f0ce23c3e399818cfee81a7ab0880f714e53d7672b08df0fa62f2843416e1ea098261087a565b50565b6060600460008373ffffffffffffffffffffffffffffffffffffffff1673ffffffffffffffffffffffffffffffffffffffff168152602001908152602001600020805480602002602001604051908101604052809291908181526020018280548015610b8a57602002820191906000526020600020905b815481526020019060010190808311610b76575b50505050509050919050565b600080600084815260200190815260200160002060000160008373ffffffffffffffffffffffffffffffffffffffff1673ffffffffffffffffffffffffffffffffffffffff16815260200190815260200160002060009054906101000a900460ff16905092915050565b610c08611527565b610c327fa49807205ce4d355092ef5a8a18f56e8913cf4a201fbe287825b095693c2177533610b96565b80610c635750610c627f0ce23c3e399818cfee81a7ab0880f714e53d7672b08df0fa62f2843416e1ea0933610b96565b5b610ca2576040517f08c379a0000000000000000000000000000000000000000000000000000000008152600401610c99906126e0565b60405180910390fd5b6000600360008381526020019081526020016000206004015403610cfb576040517f08c379a0000000000000000000000000000000000000000000000000000000008152600401610cf2906122be565b60405180910390fd5b6003600082815260200190815260200160002060060160009054906101000a900460ff16610d5e576040517f08c379a0000000000000000000000000000000000000000000000000000000008152600401610d559061274c565b60405180910390fd5b60006003600083815260200190815260200160002060060160006101000a81548160ff0219169083151502179055503373ffffffffffffffffffffffffffffffffffffffff16817f0a7643bfbd115d98595cc7bd15944172c7ef0e4a7f48dcaf676dec4b74be936760405160405180910390a350565b6000801b81565b610de361190b565b6003600083815260200190815260200160002060405180610100016040529081600082018054610e1290612379565b80601f0160208091040260200160405190810160405280929190818152602001828054610e3e90612379565b8015610e8b5780601f10610e6057610100808354040283529160200191610e8b565b820191906000526020600020905b815481529060010190602001808311610e6e57829003601f168201915b50505050508152602001600182018054610ea490612379565b80601f0160208091040260200160405190810160405280929190818152602001828054610ed090612379565b8015610f1d5780601f10610ef257610100808354040283529160200191610f1d565b820191906000526020600020905b815481529060010190602001808311610f0057829003601f168201915b505050505081526020016002820160009054906101000a900473ffffffffffffffffffffffffffffffffffffffff1673ffffffffffffffffffffffffffffffffffffffff1673ffffffffffffffffffffffffffffffffffffffff1681526020016003820160009054906101000a900473ffffffffffffffffffffffffffffffffffffffff1673ffffffffffffffffffffffffffffffffffffffff1673ffffffffffffffffffffffffffffffffffffffff16815260200160048201548152602001600582015481526020016006820160009054906101000a900460ff1615151515815260200160078201805461101190612379565b80601f016020809104026020016040519081016040528092919081815260200182805461103d90612379565b801561108a5780601f1061105f5761010080835404028352916020019161108a565b820191906000526020600020905b81548152906001019060200180831161106d57829003601f168201915b5050505050815250509050919050565b6110c47fa49807205ce4d355092ef5a8a18f56e8913cf4a201fbe287825b095693c2177533610b96565b611103576040517f08c379a00000000000000000000000000000000000000000000000000000000081526004016110fa90612674565b60405180910390fd5b61112d7f0ce23c3e399818cfee81a7ab0880f714e53d7672b08df0fa62f2843416e1ea0982611130565b50565b6111398261062e565b61114281611568565b61114c8383611675565b50505050565b61115a611527565b61116261182c565b61118c7f0ce23c3e399818cfee81a7ab0880f714e53d7672b08df0fa62f2843416e1ea0933610b96565b6111cb576040517f08c379a00000000000000000000000000000000000000000000000000000000081526004016111c290612252565b60405180910390fd5b600085846040516020016111e09291906127f0565b6040516020818303038152906040528051906020012090506000600360008381526020019081526020016000206004015414611251576040517f08c379a000000000000000000000000000000000000000000000000000000000815260040161124890612864565b60405180910390fd5b6040518061010001604052808781526020018681526020018573ffffffffffffffffffffffffffffffffffffffff1681526020013373ffffffffffffffffffffffffffffffffffffffff168152602001428152602001848152602001600115158152602001838152506003600083815260200190815260200160002060008201518160000190816112e29190612556565b5060208201518160010190816112f89190612556565b5060408201518160020160006101000a81548173ffffffffffffffffffffffffffffffffffffffff021916908373ffffffffffffffffffffffffffffffffffffffff16021790555060608201518160030160006101000a81548173ffffffffffffffffffffffffffffffffffffffff021916908373ffffffffffffffffffffffffffffffffffffffff1602179055506080820151816004015560a0820151816005015560c08201518160060160006101000a81548160ff02191690831515021790555060e08201518160070190816113d09190612556565b50905050600460008573ffffffffffffffffffffffffffffffffffffffff1673ffffffffffffffffffffffffffffffffffffffff1681526020019081526020016000208190806001815401808255809150506001900390600052602060002001600090919091909150558373ffffffffffffffffffffffffffffffffffffffff16817fcecda822a306eda8e61429ffaafd5fe5db34a4f34c0898649d15ee6f5f80981f876040516114819190612884565b60405180910390a350611492611870565b5050505050565b7f0ce23c3e399818cfee81a7ab0880f714e53d7672b08df0fa62f2843416e1ea0981565b60007f01ffc9a7000000000000000000000000000000000000000000000000000000007bffffffffffffffffffffffffffffffffffffffffffffffffffffffff1916827bffffffffffffffffffffffffffffffffffffffffffffffffffffffff1916149050919050565b61152f6109bb565b15611566576040517fd93c066500000000000000000000000000000000000000000000000000000000815260040160405180910390fd5b565b6115798161157461166d565b61187a565b50565b60006115888383610b96565b61166257600160008085815260200190815260200160002060000160008473ffffffffffffffffffffffffffffffffffffffff1673ffffffffffffffffffffffffffffffffffffffff16815260200190815260200160002060006101000a81548160ff0219169083151502179055506115ff61166d565b73ffffffffffffffffffffffffffffffffffffffff168273ffffffffffffffffffffffffffffffffffffffff16847f2f8788117e7eff1d82e926ec794901d17c78024a50270940304540a733656f0d60405160405180910390a460019050611667565b600090505b92915050565b600033905090565b60006116818383610b96565b1561175c57600080600085815260200190815260200160002060000160008473ffffffffffffffffffffffffffffffffffffffff1673ffffffffffffffffffffffffffffffffffffffff16815260200190815260200160002060006101000a81548160ff0219169083151502179055506116f961166d565b73ffffffffffffffffffffffffffffffffffffffff168273ffffffffffffffffffffffffffffffffffffffff16847ff6391f5c32d9c69d2a47ea670b442974b53935d1edc7fd64eb21e047a839171b60405160405180910390a460019050611761565b600090505b92915050565b61176f6118cb565b6000600160006101000a81548160ff0219169083151502179055507f5db9ee0a495bf2e6ff9c91a7834c1ba4fdd244a5e8aa4e537bd38aeae4b073aa6117b361166d565b6040516117c091906128a6565b60405180910390a1565b6117d2611527565b60018060006101000a81548160ff0219169083151502179055507f62e78cea01bee320cd4e420270b5ea74000d11b0c9f74754ebdbfc544b05a25861181561166d565b60405161182291906128a6565b60405180910390a1565b6002805403611867576040517f3ee5aeb500000000000000000000000000000000000000000000000000000000815260040160405180910390fd5b60028081905550565b6001600281905550565b6118848282610b96565b6118c75780826040517fe2517d3f0000000000000000000000000000000000000000000000000000000081526004016118be9291906128c1565b60405180910390fd5b5050565b6118d36109bb565b611909576040517f8dfc202b00000000000000000000000000000000000000000000000000000000815260040160405180910390fd5b565b6040518061010001604052806060815260200160608152602001600073ffffffffffffffffffffffffffffffffffffffff168152602001600073ffffffffffffffffffffffffffffffffffffffff1681526020016000815260200160008152602001600015158152602001606081525090565b6000604051905090565b600080fd5b600080fd5b60007fffffffff0000000000000000000000000000000000000000000000000000000082169050919050565b6119c781611992565b81146119d257600080fd5b50565b6000813590506119e4816119be565b92915050565b600060208284031215611a00576119ff611988565b5b6000611a0e848285016119d5565b91505092915050565b60008115159050919050565b611a2c81611a17565b82525050565b6000602082019050611a476000830184611a23565b92915050565b6000819050919050565b611a6081611a4d565b8114611a6b57600080fd5b50565b600081359050611a7d81611a57565b92915050565b600080fd5b600080fd5b6000601f19601f8301169050919050565b7f4e487b7100000000000000000000000000000000000000000000000000000000600052604160045260246000fd5b611ad682611a8d565b810181811067ffffffffffffffff82111715611af557611af4611a9e565b5b80604052505050565b6000611b0861197e565b9050611b148282611acd565b919050565b600067ffffffffffffffff821115611b3457611b33611a9e565b5b611b3d82611a8d565b9050602081019050919050565b82818337600083830152505050565b6000611b6c611b6784611b19565b611afe565b905082815260208101848484011115611b8857611b87611a88565b5b611b93848285611b4a565b509392505050565b600082601f830112611bb057611baf611a83565b5b8135611bc0848260208601611b59565b91505092915050565b6000819050919050565b611bdc81611bc9565b8114611be757600080fd5b50565b600081359050611bf981611bd3565b92915050565b600080600060608486031215611c1857611c17611988565b5b6000611c2686828701611a6e565b935050602084013567ffffffffffffffff811115611c4757611c4661198d565b5b611c5386828701611b9b565b9250506040611c6486828701611bea565b9150509250925092565b600060208284031215611c8457611c83611988565b5b6000611c9284828501611a6e565b91505092915050565b611ca481611a4d565b82525050565b6000602082019050611cbf6000830184611c9b565b92915050565b600081519050919050565b600082825260208201905092915050565b60005b83811015611cff578082015181840152602081019050611ce4565b60008484015250505050565b6000611d1682611cc5565b611d208185611cd0565b9350611d30818560208601611ce1565b611d3981611a8d565b840191505092915050565b600073ffffffffffffffffffffffffffffffffffffffff82169050919050565b6000611d6f82611d44565b9050919050565b611d7f81611d64565b82525050565b611d8e81611bc9565b82525050565b6000610100820190508181036000830152611daf818b611d0b565b90508181036020830152611dc3818a611d0b565b9050611dd26040830189611d76565b611ddf6060830188611d76565b611dec6080830187611d85565b611df960a0830186611d85565b611e0660c0830185611a23565b81810360e0830152611e188184611d0b565b90509998505050505050505050565b611e3081611d64565b8114611e3b57600080fd5b50565b600081359050611e4d81611e27565b92915050565b60008060408385031215611e6a57611e69611988565b5b6000611e7885828601611a6e565b9250506020611e8985828601611e3e565b9150509250929050565b60008060408385031215611eaa57611ea9611988565b5b6000611eb885828601611e3e565b9250506020611ec985828601611bea565b9150509250929050565b600060208284031215611ee957611ee8611988565b5b6000611ef784828501611e3e565b91505092915050565b600081519050919050565b600082825260208201905092915050565b6000819050602082019050919050565b611f3581611a4d565b82525050565b6000611f478383611f2c565b60208301905092915050565b6000602082019050919050565b6000611f6b82611f00565b611f758185611f0b565b9350611f8083611f1c565b8060005b83811015611fb1578151611f988882611f3b565b9750611fa383611f53565b925050600181019050611f84565b5085935050505092915050565b60006020820190508181036000830152611fd88184611f60565b905092915050565b600082825260208201905092915050565b6000611ffc82611cc5565b6120068185611fe0565b9350612016818560208601611ce1565b61201f81611a8d565b840191505092915050565b61203381611d64565b82525050565b61204281611bc9565b82525050565b61205181611a17565b82525050565b60006101008301600083015184820360008601526120758282611ff1565b9150506020830151848203602086015261208f8282611ff1565b91505060408301516120a4604086018261202a565b5060608301516120b7606086018261202a565b5060808301516120ca6080860182612039565b5060a08301516120dd60a0860182612039565b5060c08301516120f060c0860182612048565b5060e083015184820360e08601526121088282611ff1565b9150508091505092915050565b6000602082019050818103600083015261212f8184612057565b905092915050565b600080600080600060a0868803121561215357612152611988565b5b600086013567ffffffffffffffff8111156121715761217061198d565b5b61217d88828901611b9b565b955050602086013567ffffffffffffffff81111561219e5761219d61198d565b5b6121aa88828901611b9b565b94505060406121bb88828901611e3e565b93505060606121cc88828901611bea565b925050608086013567ffffffffffffffff8111156121ed576121ec61198d565b5b6121f988828901611b9b565b9150509295509295909350565b7f43616c6c6572206973206e6f7420612076657269666965720000000000000000600082015250565b600061223c601883611cd0565b915061224782612206565b602082019050919050565b6000602082019050818103600083015261226b8161222f565b9050919050565b7f446f63756d656e7420646f6573206e6f74206578697374000000000000000000600082015250565b60006122a8601783611cd0565b91506122b382612272565b602082019050919050565b600060208201905081810360008301526122d78161229b565b9050919050565b7f446f63756d656e74206973207265766f6b656400000000000000000000000000600082015250565b6000612314601383611cd0565b915061231f826122de565b602082019050919050565b6000602082019050818103600083015261234381612307565b9050919050565b7f4e487b7100000000000000000000000000000000000000000000000000000000600052602260045260246000fd5b6000600282049050600182168061239157607f821691505b6020821081036123a4576123a361234a565b5b50919050565b60008190508160005260206000209050919050565b60006020601f8301049050919050565b600082821b905092915050565b60006008830261240c7fffffffffffffffffffffffffffffffffffffffffffffffffffffffffffffffff826123cf565b61241686836123cf565b95508019841693508086168417925050509392505050565b6000819050919050565b600061245361244e61244984611bc9565b61242e565b611bc9565b9050919050565b6000819050919050565b61246d83612438565b6124816124798261245a565b8484546123dc565b825550505050565b600090565b612496612489565b6124a1818484612464565b505050565b5b818110156124c5576124ba60008261248e565b6001810190506124a7565b5050565b601f82111561250a576124db816123aa565b6124e4846123bf565b810160208510156124f3578190505b6125076124ff856123bf565b8301826124a6565b50505b505050565b600082821c905092915050565b600061252d6000198460080261250f565b1980831691505092915050565b6000612546838361251c565b9150826002028217905092915050565b61255f82611cc5565b67ffffffffffffffff81111561257857612577611a9e565b5b6125828254612379565b61258d8282856124c9565b600060209050601f8311600181146125c057600084156125ae578287015190505b6125b8858261253a565b865550612620565b601f1984166125ce866123aa565b60005b828110156125f6578489015182556001820191506020850194506020810190506125d1565b86831015612613578489015161260f601f89168261251c565b8355505b6001600288020188555050505b505050505050565b7f43616c6c6572206973206e6f7420616e2061646d696e00000000000000000000600082015250565b600061265e601683611cd0565b915061266982612628565b602082019050919050565b6000602082019050818103600083015261268d81612651565b9050919050565b7f43616c6c65722063616e6e6f74207265766f6b6520646f63756d656e74730000600082015250565b60006126ca601e83611cd0565b91506126d582612694565b602082019050919050565b600060208201905081810360008301526126f9816126bd565b9050919050565b7f446f63756d656e7420616c7265616479207265766f6b65640000000000000000600082015250565b6000612736601883611cd0565b915061274182612700565b602082019050919050565b6000602082019050818103600083015261276581612729565b9050919050565b600081905092915050565b600061278282611cc5565b61278c818561276c565b935061279c818560208601611ce1565b80840191505092915050565b60008160601b9050919050565b60006127c0826127a8565b9050919050565b60006127d2826127b5565b9050919050565b6127ea6127e582611d64565b6127c7565b82525050565b60006127fc8285612777565b915061280882846127d9565b6014820191508190509392505050565b7f446f63756d656e7420616c726561647920657869737473000000000000000000600082015250565b600061284e601783611cd0565b915061285982612818565b602082019050919050565b6000602082019050818103600083015261287d81612841565b9050919050565b6000602082019050818103600083015261289e8184611d0b565b905092915050565b60006020820190506128bb6000830184611d76565b92915050565b60006040820190506128d66000830185611d76565b6128e36020830184611c9b565b939250505056fea2646970667358221220d2e906f4a5f06feab6f2c2a23acf92a9495e256f9d1255710257f7a60c35376264736f6c63430008140033",
  "linkReferences": {},
  "deployedLinkReferences": {}
}