{
  "_format": "hh-sol-artifact-1",
  "contractName": "PropertyRegistry",
  "sourceName": "contracts/PropertyRegistry.sol",
  "abi": [
    {
      "anonymous": false,
      "inputs": [
        {
          "indexed": true,
          "internalType": "address",
          "name": "blockchainId",
          "type": "address"
        },
        {
          "indexed": true,
          "internalType": "address",
          "name": "previousOwner",
          "type": "address"
        },
        {
          "indexed": true,
          "internalType": "address",
          "name": "newOwner",
          "type": "address"
        },
        {
          "indexed": false,
          "internalType": "uint256",
          "name": "transferDate",
          "type": "uint256"
        }
      ],
      "name": "OwnershipTransferred",
      "type": "event"
    },
    {
      "anonymous": false,
      "inputs": [
        {
          "indexed": true,
          "internalType": "address",
          "name": "blockchainId",
          "type": "address"
        },
        {
          "indexed": false,
          "internalType": "string",
          "name": "propertyId",
          "type": "string"
        },
        {
          "indexed": false,
          "internalType": "string",
          "name": "propertyName",
          "type": "string"
        },
        {
          "indexed": true,
          "internalType": "address",
          "name": "owner",
          "type": "address"
        }
      ],
      "name": "PropertyRegistered",
      "type": "event"
    },
    {
      "anonymous": false,
      "inputs": [
        {
          "indexed": true,
          "internalType": "address",
          "name": "blockchainId",
          "type": "address"
        }
      ],
      "name": "PropertyVerified",
      "type": "event"
    },
    {
      "inputs": [
        {
          "internalType": "address",
          "name": "blockchainId",
          "type": "address"
        }
      ],
      "name": "getProperty",
      "outputs": [
        {
          "internalType": "string",
          "name": "propertyId",
          "type": "string"
        },
        {
          "internalType": "string",
          "name": "propertyName",
          "type": "string"
        },
        {
          "internalType": "string",
          "name": "location",
          "type": "string"
        },
        {
          "internalType": "string",
          "name": "propertyType",
          "type": "string"
        },
        {
          "internalType": "address",
          "name": "owner",
          "type": "address"
        },
        {
          "internalType": "uint256",
          "name": "registrationDate",
          "type": "uint256"
        },
        {
          "internalType": "bool",
          "name": "isVerified",
          "type": "bool"
        },
        {
          "internalType": "uint256",
          "name": "lastTransferDate",
          "type": "uint256"
        }
      ],
      "stateMutability": "view",
      "type": "function"
    },
    {
      "inputs": [
        {
          "internalType": "address",
          "name": "",
          "type": "address"
        }
      ],
      "name": "properties",
      "outputs": [
        {
          "internalType": "string",
          "name": "propertyId",
          "type": "string"
        },
        {
          "internalType": "string",
          "name": "propertyName",
          "type": "string"
        },
        {
          "internalType": "string",
          "name": "location",
          "type": "string"
        },
        {
          "internalType": "string",
          "name": "propertyType",
          "type": "string"
        },
        {
          "internalType": "address",
          "name": "owner",
          "type": "address"
        },
        {
          "internalType": "uint256",
          "name": "registrationDate",
          "type": "uint256"
        },
        {
          "internalType": "bool",
          "name": "isVerified",
          "type": "bool"
        },
        {
          "internalType": "uint256",
          "name": "lastTransferDate",
          "type": "uint256"
        }
      ],
      "stateMutability": "view",
      "type": "function"
    },
    {
      "inputs": [
        {
          "internalType": "string",
          "name": "",
          "type": "string"
        }
      ],
      "name": "propertyIdToAddress",
      "outputs": [
        {
          "internalType": "address",
          "name": "",
          "type": "address"
        }
      ],
      "stateMutability": "view",
      "type": "function"
    },
    {
      "inputs": [
        {
          "internalType": "string",
          "name": "_propertyId",
          "type": "string"
        },
        {
          "internalType": "string",
          "name": "_propertyName",
          "type": "string"
        },
        {
          "internalType": "string",
          "name": "_location",
          "type": "string"
        },
        {
          "internalType": "string",
          "name": "_propertyType",
          "type": "string"
        }
      ],
      "name": "registerProperty",
      "outputs": [
        {
          "internalType": "address",
          "name": "",
          "type": "address"
        }
      ],
      "stateMutability": "nonpayable",
      "type": "function"
    },
    {
      "inputs": [
        {
          "internalType": "address",
          "name": "blockchainId",
          "type": "address"
        },
        {
          "internalType": "address",
          "name": "newOwner",
          "type": "address"
        }
      ],
      "name": "transferOwnership",
      "outputs": [],
      "stateMutability": "nonpayable",
      "type": "function"
    },
    {
      "inputs": [
        {
          "internalType": "address",
          "name": "blockchainId",
          "type": "address"
        }
      ],
      "name": "verifyProperty",
      "outputs": [],
      "stateMutability": "nonpayable",
      "type": "function"
    }
  ],
  "bytecode": "0x608060405234801561001057600080fd5b5061198a806100206000396000f3fe608060405234801561001057600080fd5b50600436106100625760003560e01c806325ec77d7146100675780634b3b5e0e1461009e5780636d435421146100ba5780636e23de72146100d6578063952ba6d414610106578063b1a8d84b1461013d575b600080fd5b610081600480360381019061007c9190610fa6565b61016d565b6040516100959897969594939291906110a6565b60405180910390f35b6100b860048036038101906100b39190610fa6565b610402565b005b6100d460048036038101906100cf9190611140565b610532565b005b6100f060048036038101906100eb91906112b5565b6108ad565b6040516100fd919061138c565b60405180910390f35b610120600480360381019061011b9190610fa6565b610bad565b6040516101349897969594939291906110a6565b60405180910390f35b610157600480360381019061015291906113a7565b610eeb565b604051610164919061138c565b60405180910390f35b60006020528060005260406000206000915090508060000180546101909061141f565b80601f01602080910402602001604051908101604052809291908181526020018280546101bc9061141f565b80156102095780601f106101de57610100808354040283529160200191610209565b820191906000526020600020905b8154815290600101906020018083116101ec57829003601f168201915b50505050509080600101805461021e9061141f565b80601f016020809104026020016040519081016040528092919081815260200182805461024a9061141f565b80156102975780601f1061026c57610100808354040283529160200191610297565b820191906000526020600020905b81548152906001019060200180831161027a57829003601f168201915b5050505050908060020180546102ac9061141f565b80601f01602080910402602001604051908101604052809291908181526020018280546102d89061141f565b80156103255780601f106102fa57610100808354040283529160200191610325565b820191906000526020600020905b81548152906001019060200180831161030857829003601f168201915b50505050509080600301805461033a9061141f565b80601f01602080910402602001604051908101604052809291908181526020018280546103669061141f565b80156103b35780601f10610388576101008083540402835291602001916103b3565b820191906000526020600020905b81548152906001019060200180831161039657829003601f168201915b5050505050908060040160009054906101000a900473ffffffffffffffffffffffffffffffffffffffff16908060050154908060060160009054906101000a900460ff16908060070154905088565b60008060008373ffffffffffffffffffffffffffffffffffffffff1673ffffffffffffffffffffffffffffffffffffffff16815260200190815260200160002060000180546104509061141f565b905011610492576040517f08c379a00000000000000000000000000000000000000000000000000000000081526004016104899061149c565b60405180910390fd5b60016000808373ffffffffffffffffffffffffffffffffffffffff1673ffffffffffffffffffffffffffffffffffffffff16815260200190815260200160002060060160006101000a81548160ff0219169083151502179055508073ffffffffffffffffffffffffffffffffffffffff167fed812340c7386ae9e3889dcab178aaee788b054fefa5b62fcf123fdc399d1c7660405160405180910390a250565b60008060008473ffffffffffffffffffffffffffffffffffffffff1673ffffffffffffffffffffffffffffffffffffffff16815260200190815260200160002060000180546105809061141f565b9050116105c2576040517f08c379a00000000000000000000000000000000000000000000000000000000081526004016105b99061149c565b60405180910390fd5b3373ffffffffffffffffffffffffffffffffffffffff166000808473ffffffffffffffffffffffffffffffffffffffff1673ffffffffffffffffffffffffffffffffffffffff16815260200190815260200160002060040160009054906101000a900473ffffffffffffffffffffffffffffffffffffffff1673ffffffffffffffffffffffffffffffffffffffff1614610691576040517f08c379a000000000000000000000000000000000000000000000000000000000815260040161068890611508565b60405180910390fd5b600073ffffffffffffffffffffffffffffffffffffffff168173ffffffffffffffffffffffffffffffffffffffff1603610700576040517f08c379a00000000000000000000000000000000000000000000000000000000081526004016106f790611574565b60405180910390fd5b60008060008473ffffffffffffffffffffffffffffffffffffffff1673ffffffffffffffffffffffffffffffffffffffff16815260200190815260200160002060040160009054906101000a900473ffffffffffffffffffffffffffffffffffffffff169050816000808573ffffffffffffffffffffffffffffffffffffffff1673ffffffffffffffffffffffffffffffffffffffff16815260200190815260200160002060040160006101000a81548173ffffffffffffffffffffffffffffffffffffffff021916908373ffffffffffffffffffffffffffffffffffffffff160217905550426000808573ffffffffffffffffffffffffffffffffffffffff1673ffffffffffffffffffffffffffffffffffffffff168152602001908152602001600020600701819055508173ffffffffffffffffffffffffffffffffffffffff168173ffffffffffffffffffffffffffffffffffffffff168473ffffffffffffffffffffffffffffffffffffffff167fc94ebefbac931e93f1257b76157c114a6ee3d02c6153d310b5efffb6e90cce81426040516108a09190611594565b60405180910390a4505050565b6000808585856040516020016108c5939291906115eb565b60405160208183030381529060405280519060200120905060008160001c905060008060008373ffffffffffffffffffffffffffffffffffffffff1673ffffffffffffffffffffffffffffffffffffffff16815260200190815260200160002060000180546109339061141f565b905014610975576040517f08c379a000000000000000000000000000000000000000000000000000000000815260040161096c90611668565b60405180910390fd5b6040518061010001604052808881526020018781526020018681526020018581526020013373ffffffffffffffffffffffffffffffffffffffff168152602001428152602001600015158152602001428152506000808373ffffffffffffffffffffffffffffffffffffffff1673ffffffffffffffffffffffffffffffffffffffff1681526020019081526020016000206000820151816000019081610a1b9190611834565b506020820151816001019081610a319190611834565b506040820151816002019081610a479190611834565b506060820151816003019081610a5d9190611834565b5060808201518160040160006101000a81548173ffffffffffffffffffffffffffffffffffffffff021916908373ffffffffffffffffffffffffffffffffffffffff16021790555060a0820151816005015560c08201518160060160006101000a81548160ff02191690831515021790555060e0820151816007015590505080600188604051610aed9190611906565b908152602001604051809103902060006101000a81548173ffffffffffffffffffffffffffffffffffffffff021916908373ffffffffffffffffffffffffffffffffffffffff1602179055503373ffffffffffffffffffffffffffffffffffffffff168173ffffffffffffffffffffffffffffffffffffffff167f90406639a2c7132e7c517459f5396403878ea855bf59640aeaff7644ec1e44b18989604051610b9892919061191d565b60405180910390a38092505050949350505050565b60608060608060008060008060008060008b73ffffffffffffffffffffffffffffffffffffffff1673ffffffffffffffffffffffffffffffffffffffff16815260200190815260200160002090506000816000018054610c0c9061141f565b905011610c4e576040517f08c379a0000000000000000000000000000000000000000000000000000000008152600401610c459061149c565b60405180910390fd5b806000018160010182600201836003018460040160009054906101000a900473ffffffffffffffffffffffffffffffffffffffff1685600501548660060160009054906101000a900460ff168760070154878054610cab9061141f565b80601f0160208091040260200160405190810160405280929190818152602001828054610cd79061141f565b8015610d245780601f10610cf957610100808354040283529160200191610d24565b820191906000526020600020905b815481529060010190602001808311610d0757829003601f168201915b50505050509750868054610d379061141f565b80601f0160208091040260200160405190810160405280929190818152602001828054610d639061141f565b8015610db05780601f10610d8557610100808354040283529160200191610db0565b820191906000526020600020905b815481529060010190602001808311610d9357829003601f168201915b50505050509650858054610dc39061141f565b80601f0160208091040260200160405190810160405280929190818152602001828054610def9061141f565b8015610e3c5780601f10610e1157610100808354040283529160200191610e3c565b820191906000526020600020905b815481529060010190602001808311610e1f57829003601f168201915b50505050509550848054610e4f9061141f565b80601f0160208091040260200160405190810160405280929190818152602001828054610e7b9061141f565b8015610ec85780601f10610e9d57610100808354040283529160200191610ec8565b820191906000526020600020905b815481529060010190602001808311610eab57829003601f168201915b505050505094509850985098509850985098509850985050919395975091939597565b6001818051602081018201805184825260208301602085012081835280955050505050506000915054906101000a900473ffffffffffffffffffffffffffffffffffffffff1681565b6000604051905090565b600080fd5b600080fd5b600073ffffffffffffffffffffffffffffffffffffffff82169050919050565b6000610f7382610f48565b9050919050565b610f8381610f68565b8114610f8e57600080fd5b50565b600081359050610fa081610f7a565b92915050565b600060208284031215610fbc57610fbb610f3e565b5b6000610fca84828501610f91565b91505092915050565b600081519050919050565b600082825260208201905092915050565b60005b8381101561100d578082015181840152602081019050610ff2565b60008484015250505050565b6000601f19601f8301169050919050565b600061103582610fd3565b61103f8185610fde565b935061104f818560208601610fef565b61105881611019565b840191505092915050565b61106c81610f68565b82525050565b6000819050919050565b61108581611072565b82525050565b60008115159050919050565b6110a08161108b565b82525050565b60006101008201905081810360008301526110c1818b61102a565b905081810360208301526110d5818a61102a565b905081810360408301526110e9818961102a565b905081810360608301526110fd818861102a565b905061110c6080830187611063565b61111960a083018661107c565b61112660c0830185611097565b61113360e083018461107c565b9998505050505050505050565b6000806040838503121561115757611156610f3e565b5b600061116585828601610f91565b925050602061117685828601610f91565b9150509250929050565b600080fd5b600080fd5b7f4e487b7100000000000000000000000000000000000000000000000000000000600052604160045260246000fd5b6111c282611019565b810181811067ffffffffffffffff821117156111e1576111e061118a565b5b80604052505050565b60006111f4610f34565b905061120082826111b9565b919050565b600067ffffffffffffffff8211156112205761121f61118a565b5b61122982611019565b9050602081019050919050565b82818337600083830152505050565b600061125861125384611205565b6111ea565b90508281526020810184848401111561127457611273611185565b5b61127f848285611236565b509392505050565b600082601f83011261129c5761129b611180565b5b81356112ac848260208601611245565b91505092915050565b600080600080608085870312156112cf576112ce610f3e565b5b600085013567ffffffffffffffff8111156112ed576112ec610f43565b5b6112f987828801611287565b945050602085013567ffffffffffffffff81111561131a57611319610f43565b5b61132687828801611287565b935050604085013567ffffffffffffffff81111561134757611346610f43565b5b61135387828801611287565b925050606085013567ffffffffffffffff81111561137457611373610f43565b5b61138087828801611287565b91505092959194509250565b60006020820190506113a16000830184611063565b92915050565b6000602082840312156113bd576113bc610f3e565b5b600082013567ffffffffffffffff8111156113db576113da610f43565b5b6113e784828501611287565b91505092915050565b7f4e487b7100000000000000000000000000000000000000000000000000000000600052602260045260246000fd5b6000600282049050600182168061143757607f821691505b60208210810361144a576114496113f0565b5b50919050565b7f50726f7065727479206e6f7420666f756e640000000000000000000000000000600082015250565b6000611486601283610fde565b915061149182611450565b602082019050919050565b600060208201905081810360008301526114b581611479565b9050919050565b7f4e6f7420746865206f776e657200000000000000000000000000000000000000600082015250565b60006114f2600d83610fde565b91506114fd826114bc565b602082019050919050565b60006020820190508181036000830152611521816114e5565b9050919050565b7f496e76616c6964206e6577206f776e6572000000000000000000000000000000600082015250565b600061155e601183610fde565b915061156982611528565b602082019050919050565b6000602082019050818103600083015261158d81611551565b9050919050565b60006020820190506115a9600083018461107c565b92915050565b600081905092915050565b60006115c582610fd3565b6115cf81856115af565b93506115df818560208601610fef565b80840191505092915050565b60006115f782866115ba565b915061160382856115ba565b915061160f82846115ba565b9150819050949350505050565b7f50726f706572747920616c726561647920657869737473000000000000000000600082015250565b6000611652601783610fde565b915061165d8261161c565b602082019050919050565b6000602082019050818103600083015261168181611645565b9050919050565b60008190508160005260206000209050919050565b60006020601f8301049050919050565b600082821b905092915050565b6000600883026116ea7fffffffffffffffffffffffffffffffffffffffffffffffffffffffffffffffff826116ad565b6116f486836116ad565b95508019841693508086168417925050509392505050565b6000819050919050565b600061173161172c61172784611072565b61170c565b611072565b9050919050565b6000819050919050565b61174b83611716565b61175f61175782611738565b8484546116ba565b825550505050565b600090565b611774611767565b61177f818484611742565b505050565b5b818110156117a35761179860008261176c565b600181019050611785565b5050565b601f8211156117e8576117b981611688565b6117c28461169d565b810160208510156117d1578190505b6117e56117dd8561169d565b830182611784565b50505b505050565b600082821c905092915050565b600061180b600019846008026117ed565b1980831691505092915050565b600061182483836117fa565b9150826002028217905092915050565b61183d82610fd3565b67ffffffffffffffff8111156118565761185561118a565b5b611860825461141f565b61186b8282856117a7565b600060209050601f83116001811461189e576000841561188c578287015190505b6118968582611818565b8655506118fe565b601f1984166118ac86611688565b60005b828110156118d4578489015182556001820191506020850194506020810190506118af565b868310156118f157848901516118ed601f8916826117fa565b8355505b6001600288020188555050505b505050505050565b600061191282846115ba565b915081905092915050565b60006040820190508181036000830152611937818561102a565b9050818103602083015261194b818461102a565b9050939250505056fea26469706673582212207fd08852185d71fe7be77429024dd31ec6c09ce76c8d2fb8dbc1ae51204dd1bb64736f6c63430008130033",
  "linkReferences": {},
  "deployedLinkReferences": {}
}