{
  "_format": "hh-sol-artifact-1",
  "contractName": "PropertyRegistry",
  "sourceName": "contracts/PropertyRegistry.sol",
  "abi": [
    {
      "anonymous": false,
      "inputs": [
        {
          "indexed": true,
          "internalType": "address",
          "name": "blockchainId",
          "type": "address"
        },
        {
          "indexed": true,
          "internalType": "address",
          "name": "previousOwner",
          "type": "address"
        },
        {
          "indexed": true,
          "internalType": "address",
          "name": "newOwner",
          "type": "address"
        },
        {
          "indexed": false,
          "internalType": "uint256",
          "name": "transferDate",
          "type": "uint256"
        }
      ],
      "name": "OwnershipTransferred",
      "type": "event"
    },
    {
      "anonymous": false,
      "inputs": [
        {
          "indexed": true,
          "internalType": "address",
          "name": "blockchainId",
          "type": "address"
        },
        {
          "indexed": false,
          "internalType": "string",
          "name": "propertyId",
          "type": "string"
        },
        {
          "indexed": false,
          "internalType": "string",
          "name": "propertyName",
          "type": "string"
        },
        {
          "indexed": false,
          "internalType": "address",
          "name": "owner",
          "type": "address"
        }
      ],
      "name": "PropertyRegistered",
      "type": "event"
    },
    {
      "anonymous": false,
      "inputs": [
        {
          "indexed": true,
          "internalType": "address",
          "name": "blockchainId",
          "type": "address"
        }
      ],
      "name": "PropertyVerified",
      "type": "event"
    },
    {
      "inputs": [
        {
          "internalType": "address",
          "name": "_blockchainId",
          "type": "address"
        }
      ],
      "name": "getProperty",
      "outputs": [
        {
          "components": [
            {
              "internalType": "string",
              "name": "propertyId",
              "type": "string"
            },
            {
              "internalType": "string",
              "name": "propertyName",
              "type": "string"
            },
            {
              "internalType": "string",
              "name": "location",
              "type": "string"
            },
            {
              "internalType": "string",
              "name": "propertyType",
              "type": "string"
            },
            {
              "internalType": "address",
              "name": "owner",
              "type": "address"
            },
            {
              "internalType": "uint256",
              "name": "registrationDate",
              "type": "uint256"
            },
            {
              "internalType": "bool",
              "name": "isVerified",
              "type": "bool"
            },
            {
              "internalType": "uint256",
              "name": "lastTransferDate",
              "type": "uint256"
            }
          ],
          "internalType": "struct PropertyRegistry.Property",
          "name": "",
          "type": "tuple"
        }
      ],
      "stateMutability": "view",
      "type": "function"
    },
    {
      "inputs": [
        {
          "internalType": "address",
          "name": "",
          "type": "address"
        }
      ],
      "name": "properties",
      "outputs": [
        {
          "internalType": "string",
          "name": "propertyId",
          "type": "string"
        },
        {
          "internalType": "string",
          "name": "propertyName",
          "type": "string"
        },
        {
          "internalType": "string",
          "name": "location",
          "type": "string"
        },
        {
          "internalType": "string",
          "name": "propertyType",
          "type": "string"
        },
        {
          "internalType": "address",
          "name": "owner",
          "type": "address"
        },
        {
          "internalType": "uint256",
          "name": "registrationDate",
          "type": "uint256"
        },
        {
          "internalType": "bool",
          "name": "isVerified",
          "type": "bool"
        },
        {
          "internalType": "uint256",
          "name": "lastTransferDate",
          "type": "uint256"
        }
      ],
      "stateMutability": "view",
      "type": "function"
    },
    {
      "inputs": [
        {
          "internalType": "string",
          "name": "",
          "type": "string"
        }
      ],
      "name": "propertyIdToAddress",
      "outputs": [
        {
          "internalType": "address",
          "name": "",
          "type": "address"
        }
      ],
      "stateMutability": "view",
      "type": "function"
    },
    {
      "inputs": [
        {
          "internalType": "string",
          "name": "_propertyId",
          "type": "string"
        },
        {
          "internalType": "string",
          "name": "_propertyName",
          "type": "string"
        },
        {
          "internalType": "string",
          "name": "_location",
          "type": "string"
        },
        {
          "internalType": "string",
          "name": "_propertyType",
          "type": "string"
        }
      ],
      "name": "registerProperty",
      "outputs": [
        {
          "internalType": "address",
          "name": "",
          "type": "address"
        }
      ],
      "stateMutability": "nonpayable",
      "type": "function"
    },
    {
      "inputs": [
        {
          "internalType": "address",
          "name": "_blockchainId",
          "type": "address"
        },
        {
          "internalType": "address",
          "name": "_newOwner",
          "type": "address"
        }
      ],
      "name": "transferOwnership",
      "outputs": [],
      "stateMutability": "nonpayable",
      "type": "function"
    },
    {
      "inputs": [
        {
          "internalType": "address",
          "name": "_blockchainId",
          "type": "address"
        }
      ],
      "name": "verifyProperty",
      "outputs": [],
      "stateMutability": "nonpayable",
      "type": "function"
    }
  ],
  "bytecode": "0x608060405234801561001057600080fd5b50611cc9806100206000396000f3fe608060405234801561001057600080fd5b50600436106100625760003560e01c806325ec77d7146100675780634b3b5e0e1461009e5780636d435421146100ba5780636e23de72146100d6578063952ba6d414610106578063b1a8d84b14610136575b600080fd5b610081600480360381019061007c9190611115565b610166565b604051610095989796959493929190611215565b60405180910390f35b6100b860048036038101906100b39190611115565b6103fb565b005b6100d460048036038101906100cf91906112af565b61056b565b005b6100f060048036038101906100eb9190611424565b6109b4565b6040516100fd91906114fb565b60405180910390f35b610120600480360381019061011b9190611115565b610c07565b60405161012d9190611652565b60405180910390f35b610150600480360381019061014b9190611674565b610ffd565b60405161015d91906114fb565b60405180910390f35b6000602052806000526040600020600091509050806000018054610189906116ec565b80601f01602080910402602001604051908101604052809291908181526020018280546101b5906116ec565b80156102025780601f106101d757610100808354040283529160200191610202565b820191906000526020600020905b8154815290600101906020018083116101e557829003601f168201915b505050505090806001018054610217906116ec565b80601f0160208091040260200160405190810160405280929190818152602001828054610243906116ec565b80156102905780601f1061026557610100808354040283529160200191610290565b820191906000526020600020905b81548152906001019060200180831161027357829003601f168201915b5050505050908060020180546102a5906116ec565b80601f01602080910402602001604051908101604052809291908181526020018280546102d1906116ec565b801561031e5780601f106102f35761010080835404028352916020019161031e565b820191906000526020600020905b81548152906001019060200180831161030157829003601f168201915b505050505090806003018054610333906116ec565b80601f016020809104026020016040519081016040528092919081815260200182805461035f906116ec565b80156103ac5780601f10610381576101008083540402835291602001916103ac565b820191906000526020600020905b81548152906001019060200180831161038f57829003601f168201915b5050505050908060040160009054906101000a900473ffffffffffffffffffffffffffffffffffffffff16908060050154908060060160009054906101000a900460ff16908060070154905088565b600073ffffffffffffffffffffffffffffffffffffffff166000808373ffffffffffffffffffffffffffffffffffffffff1673ffffffffffffffffffffffffffffffffffffffff16815260200190815260200160002060040160009054906101000a900473ffffffffffffffffffffffffffffffffffffffff1673ffffffffffffffffffffffffffffffffffffffff16036104cb576040517f08c379a00000000000000000000000000000000000000000000000000000000081526004016104c290611769565b60405180910390fd5b60016000808373ffffffffffffffffffffffffffffffffffffffff1673ffffffffffffffffffffffffffffffffffffffff16815260200190815260200160002060060160006101000a81548160ff0219169083151502179055508073ffffffffffffffffffffffffffffffffffffffff167fed812340c7386ae9e3889dcab178aaee788b054fefa5b62fcf123fdc399d1c7660405160405180910390a250565b600073ffffffffffffffffffffffffffffffffffffffff166000808473ffffffffffffffffffffffffffffffffffffffff1673ffffffffffffffffffffffffffffffffffffffff16815260200190815260200160002060040160009054906101000a900473ffffffffffffffffffffffffffffffffffffffff1673ffffffffffffffffffffffffffffffffffffffff160361063b576040517f08c379a000000000000000000000000000000000000000000000000000000000815260040161063290611769565b60405180910390fd5b3373ffffffffffffffffffffffffffffffffffffffff166000808473ffffffffffffffffffffffffffffffffffffffff1673ffffffffffffffffffffffffffffffffffffffff16815260200190815260200160002060040160009054906101000a900473ffffffffffffffffffffffffffffffffffffffff1673ffffffffffffffffffffffffffffffffffffffff161461070a576040517f08c379a0000000000000000000000000000000000000000000000000000000008152600401610701906117fb565b60405180910390fd5b600073ffffffffffffffffffffffffffffffffffffffff168173ffffffffffffffffffffffffffffffffffffffff1603610779576040517f08c379a000000000000000000000000000000000000000000000000000000000815260040161077090611867565b60405180910390fd5b6000808373ffffffffffffffffffffffffffffffffffffffff1673ffffffffffffffffffffffffffffffffffffffff16815260200190815260200160002060060160009054906101000a900460ff16610807576040517f08c379a00000000000000000000000000000000000000000000000000000000081526004016107fe906118f9565b60405180910390fd5b60008060008473ffffffffffffffffffffffffffffffffffffffff1673ffffffffffffffffffffffffffffffffffffffff16815260200190815260200160002060040160009054906101000a900473ffffffffffffffffffffffffffffffffffffffff169050816000808573ffffffffffffffffffffffffffffffffffffffff1673ffffffffffffffffffffffffffffffffffffffff16815260200190815260200160002060040160006101000a81548173ffffffffffffffffffffffffffffffffffffffff021916908373ffffffffffffffffffffffffffffffffffffffff160217905550426000808573ffffffffffffffffffffffffffffffffffffffff1673ffffffffffffffffffffffffffffffffffffffff168152602001908152602001600020600701819055508173ffffffffffffffffffffffffffffffffffffffff168173ffffffffffffffffffffffffffffffffffffffff168473ffffffffffffffffffffffffffffffffffffffff167fc94ebefbac931e93f1257b76157c114a6ee3d02c6153d310b5efffb6e90cce81426040516109a79190611919565b60405180910390a4505050565b60008085426040516020016109ca929190611991565b6040516020818303038152906040528051906020012060001c9050806001876040516109f691906119b9565b908152602001604051809103902060006101000a81548173ffffffffffffffffffffffffffffffffffffffff021916908373ffffffffffffffffffffffffffffffffffffffff1602179055506040518061010001604052808781526020018681526020018581526020018481526020013373ffffffffffffffffffffffffffffffffffffffff168152602001428152602001600015158152602001428152506000808373ffffffffffffffffffffffffffffffffffffffff1673ffffffffffffffffffffffffffffffffffffffff1681526020019081526020016000206000820151816000019081610ae89190611b7c565b506020820151816001019081610afe9190611b7c565b506040820151816002019081610b149190611b7c565b506060820151816003019081610b2a9190611b7c565b5060808201518160040160006101000a81548173ffffffffffffffffffffffffffffffffffffffff021916908373ffffffffffffffffffffffffffffffffffffffff16021790555060a0820151816005015560c08201518160060160006101000a81548160ff02191690831515021790555060e082015181600701559050508073ffffffffffffffffffffffffffffffffffffffff167f90406639a2c7132e7c517459f5396403878ea855bf59640aeaff7644ec1e44b1878733604051610bf393929190611c4e565b60405180910390a280915050949350505050565b610c0f611046565b600073ffffffffffffffffffffffffffffffffffffffff166000808473ffffffffffffffffffffffffffffffffffffffff1673ffffffffffffffffffffffffffffffffffffffff16815260200190815260200160002060040160009054906101000a900473ffffffffffffffffffffffffffffffffffffffff1673ffffffffffffffffffffffffffffffffffffffff1603610cdf576040517f08c379a0000000000000000000000000000000000000000000000000000000008152600401610cd690611769565b60405180910390fd5b6000808373ffffffffffffffffffffffffffffffffffffffff1673ffffffffffffffffffffffffffffffffffffffff16815260200190815260200160002060405180610100016040529081600082018054610d39906116ec565b80601f0160208091040260200160405190810160405280929190818152602001828054610d65906116ec565b8015610db25780601f10610d8757610100808354040283529160200191610db2565b820191906000526020600020905b815481529060010190602001808311610d9557829003601f168201915b50505050508152602001600182018054610dcb906116ec565b80601f0160208091040260200160405190810160405280929190818152602001828054610df7906116ec565b8015610e445780601f10610e1957610100808354040283529160200191610e44565b820191906000526020600020905b815481529060010190602001808311610e2757829003601f168201915b50505050508152602001600282018054610e5d906116ec565b80601f0160208091040260200160405190810160405280929190818152602001828054610e89906116ec565b8015610ed65780601f10610eab57610100808354040283529160200191610ed6565b820191906000526020600020905b815481529060010190602001808311610eb957829003601f168201915b50505050508152602001600382018054610eef906116ec565b80601f0160208091040260200160405190810160405280929190818152602001828054610f1b906116ec565b8015610f685780601f10610f3d57610100808354040283529160200191610f68565b820191906000526020600020905b815481529060010190602001808311610f4b57829003601f168201915b505050505081526020016004820160009054906101000a900473ffffffffffffffffffffffffffffffffffffffff1673ffffffffffffffffffffffffffffffffffffffff1673ffffffffffffffffffffffffffffffffffffffff168152602001600582015481526020016006820160009054906101000a900460ff161515151581526020016007820154815250509050919050565b6001818051602081018201805184825260208301602085012081835280955050505050506000915054906101000a900473ffffffffffffffffffffffffffffffffffffffff1681565b60405180610100016040528060608152602001606081526020016060815260200160608152602001600073ffffffffffffffffffffffffffffffffffffffff16815260200160008152602001600015158152602001600081525090565b6000604051905090565b600080fd5b600080fd5b600073ffffffffffffffffffffffffffffffffffffffff82169050919050565b60006110e2826110b7565b9050919050565b6110f2816110d7565b81146110fd57600080fd5b50565b60008135905061110f816110e9565b92915050565b60006020828403121561112b5761112a6110ad565b5b600061113984828501611100565b91505092915050565b600081519050919050565b600082825260208201905092915050565b60005b8381101561117c578082015181840152602081019050611161565b60008484015250505050565b6000601f19601f8301169050919050565b60006111a482611142565b6111ae818561114d565b93506111be81856020860161115e565b6111c781611188565b840191505092915050565b6111db816110d7565b82525050565b6000819050919050565b6111f4816111e1565b82525050565b60008115159050919050565b61120f816111fa565b82525050565b6000610100820190508181036000830152611230818b611199565b90508181036020830152611244818a611199565b905081810360408301526112588189611199565b9050818103606083015261126c8188611199565b905061127b60808301876111d2565b61128860a08301866111eb565b61129560c0830185611206565b6112a260e08301846111eb565b9998505050505050505050565b600080604083850312156112c6576112c56110ad565b5b60006112d485828601611100565b92505060206112e585828601611100565b9150509250929050565b600080fd5b600080fd5b7f4e487b7100000000000000000000000000000000000000000000000000000000600052604160045260246000fd5b61133182611188565b810181811067ffffffffffffffff821117156113505761134f6112f9565b5b80604052505050565b60006113636110a3565b905061136f8282611328565b919050565b600067ffffffffffffffff82111561138f5761138e6112f9565b5b61139882611188565b9050602081019050919050565b82818337600083830152505050565b60006113c76113c284611374565b611359565b9050828152602081018484840111156113e3576113e26112f4565b5b6113ee8482856113a5565b509392505050565b600082601f83011261140b5761140a6112ef565b5b813561141b8482602086016113b4565b91505092915050565b6000806000806080858703121561143e5761143d6110ad565b5b600085013567ffffffffffffffff81111561145c5761145b6110b2565b5b611468878288016113f6565b945050602085013567ffffffffffffffff811115611489576114886110b2565b5b611495878288016113f6565b935050604085013567ffffffffffffffff8111156114b6576114b56110b2565b5b6114c2878288016113f6565b925050606085013567ffffffffffffffff8111156114e3576114e26110b2565b5b6114ef878288016113f6565b91505092959194509250565b600060208201905061151060008301846111d2565b92915050565b600082825260208201905092915050565b600061153282611142565b61153c8185611516565b935061154c81856020860161115e565b61155581611188565b840191505092915050565b611569816110d7565b82525050565b611578816111e1565b82525050565b611587816111fa565b82525050565b60006101008301600083015184820360008601526115ab8282611527565b915050602083015184820360208601526115c58282611527565b915050604083015184820360408601526115df8282611527565b915050606083015184820360608601526115f98282611527565b915050608083015161160e6080860182611560565b5060a083015161162160a086018261156f565b5060c083015161163460c086018261157e565b5060e083015161164760e086018261156f565b508091505092915050565b6000602082019050818103600083015261166c818461158d565b905092915050565b60006020828403121561168a576116896110ad565b5b600082013567ffffffffffffffff8111156116a8576116a76110b2565b5b6116b4848285016113f6565b91505092915050565b7f4e487b7100000000000000000000000000000000000000000000000000000000600052602260045260246000fd5b6000600282049050600182168061170457607f821691505b602082108103611717576117166116bd565b5b50919050565b7f50726f706572747920646f6573206e6f74206578697374000000000000000000600082015250565b600061175360178361114d565b915061175e8261171d565b602082019050919050565b6000602082019050818103600083015261178281611746565b9050919050565b7f4f6e6c792063757272656e74206f776e65722063616e207472616e736665722060008201527f70726f7065727479000000000000000000000000000000000000000000000000602082015250565b60006117e560288361114d565b91506117f082611789565b604082019050919050565b60006020820190508181036000830152611814816117d8565b9050919050565b7f496e76616c6964206e6577206f776e6572206164647265737300000000000000600082015250565b600061185160198361114d565b915061185c8261181b565b602082019050919050565b6000602082019050818103600083015261188081611844565b9050919050565b7f50726f7065727479206d757374206265207665726966696564206265666f726560008201527f207472616e736665720000000000000000000000000000000000000000000000602082015250565b60006118e360298361114d565b91506118ee82611887565b604082019050919050565b60006020820190508181036000830152611912816118d6565b9050919050565b600060208201905061192e60008301846111eb565b92915050565b600081905092915050565b600061194a82611142565b6119548185611934565b935061196481856020860161115e565b80840191505092915050565b6000819050919050565b61198b611986826111e1565b611970565b82525050565b600061199d828561193f565b91506119a9828461197a565b6020820191508190509392505050565b60006119c5828461193f565b915081905092915050565b60008190508160005260206000209050919050565b60006020601f8301049050919050565b600082821b905092915050565b600060088302611a327fffffffffffffffffffffffffffffffffffffffffffffffffffffffffffffffff826119f5565b611a3c86836119f5565b95508019841693508086168417925050509392505050565b6000819050919050565b6000611a79611a74611a6f846111e1565b611a54565b6111e1565b9050919050565b6000819050919050565b611a9383611a5e565b611aa7611a9f82611a80565b848454611a02565b825550505050565b600090565b611abc611aaf565b611ac7818484611a8a565b505050565b5b81811015611aeb57611ae0600082611ab4565b600181019050611acd565b5050565b601f821115611b3057611b01816119d0565b611b0a846119e5565b81016020851015611b19578190505b611b2d611b25856119e5565b830182611acc565b50505b505050565b600082821c905092915050565b6000611b5360001984600802611b35565b1980831691505092915050565b6000611b6c8383611b42565b9150826002028217905092915050565b611b8582611142565b67ffffffffffffffff811115611b9e57611b9d6112f9565b5b611ba882546116ec565b611bb3828285611aef565b600060209050601f831160018114611be65760008415611bd4578287015190505b611bde8582611b60565b865550611c46565b601f198416611bf4866119d0565b60005b82811015611c1c57848901518255600182019150602085019450602081019050611bf7565b86831015611c395784890151611c35601f891682611b42565b8355505b6001600288020188555050505b505050505050565b60006060820190508181036000830152611c688186611199565b90508181036020830152611c7c8185611199565b9050611c8b60408301846111d2565b94935050505056fea2646970667358221220b6faf18da30e8a96e12824c40e6564612df26c399fab80e8259110f9c1a95af364736f6c63430008130033",
  "linkReferences": {},
  "deployedLinkReferences": {}
}